{
  "_format": "hh-sol-artifact-1",
  "contractName": "MarketPlace",
  "sourceName": "contracts/MarketPlace.sol",
  "abi": [
    {
      "inputs": [
        {
          "internalType": "address",
          "name": "initialOwner",
          "type": "address"
        }
      ],
      "stateMutability": "nonpayable",
      "type": "constructor"
    },
    {
      "inputs": [
        {
          "internalType": "address",
          "name": "sender",
          "type": "address"
        },
        {
          "internalType": "uint256",
          "name": "tokenId",
          "type": "uint256"
        },
        {
          "internalType": "address",
          "name": "owner",
          "type": "address"
        }
      ],
      "name": "ERC721IncorrectOwner",
      "type": "error"
    },
    {
      "inputs": [
        {
          "internalType": "address",
          "name": "operator",
          "type": "address"
        },
        {
          "internalType": "uint256",
          "name": "tokenId",
          "type": "uint256"
        }
      ],
      "name": "ERC721InsufficientApproval",
      "type": "error"
    },
    {
      "inputs": [
        {
          "internalType": "address",
          "name": "approver",
          "type": "address"
        }
      ],
      "name": "ERC721InvalidApprover",
      "type": "error"
    },
    {
      "inputs": [
        {
          "internalType": "address",
          "name": "operator",
          "type": "address"
        }
      ],
      "name": "ERC721InvalidOperator",
      "type": "error"
    },
    {
      "inputs": [
        {
          "internalType": "address",
          "name": "owner",
          "type": "address"
        }
      ],
      "name": "ERC721InvalidOwner",
      "type": "error"
    },
    {
      "inputs": [
        {
          "internalType": "address",
          "name": "receiver",
          "type": "address"
        }
      ],
      "name": "ERC721InvalidReceiver",
      "type": "error"
    },
    {
      "inputs": [
        {
          "internalType": "address",
          "name": "sender",
          "type": "address"
        }
      ],
      "name": "ERC721InvalidSender",
      "type": "error"
    },
    {
      "inputs": [
        {
          "internalType": "uint256",
          "name": "tokenId",
          "type": "uint256"
        }
      ],
      "name": "ERC721NonexistentToken",
      "type": "error"
    },
    {
      "inputs": [],
      "name": "MathOverflowedMulDiv",
      "type": "error"
    },
    {
      "inputs": [
        {
          "internalType": "address",
          "name": "owner",
          "type": "address"
        }
      ],
      "name": "OwnableInvalidOwner",
      "type": "error"
    },
    {
      "inputs": [
        {
          "internalType": "address",
          "name": "account",
          "type": "address"
        }
      ],
      "name": "OwnableUnauthorizedAccount",
      "type": "error"
    },
    {
      "anonymous": false,
      "inputs": [
        {
          "indexed": true,
          "internalType": "address",
          "name": "owner",
          "type": "address"
        },
        {
          "indexed": true,
          "internalType": "address",
          "name": "approved",
          "type": "address"
        },
        {
          "indexed": true,
          "internalType": "uint256",
          "name": "tokenId",
          "type": "uint256"
        }
      ],
      "name": "Approval",
      "type": "event"
    },
    {
      "anonymous": false,
      "inputs": [
        {
          "indexed": true,
          "internalType": "address",
          "name": "owner",
          "type": "address"
        },
        {
          "indexed": true,
          "internalType": "address",
          "name": "operator",
          "type": "address"
        },
        {
          "indexed": false,
          "internalType": "bool",
          "name": "approved",
          "type": "bool"
        }
      ],
      "name": "ApprovalForAll",
      "type": "event"
    },
    {
      "anonymous": false,
      "inputs": [
        {
          "indexed": false,
          "internalType": "uint256",
          "name": "_fromTokenId",
          "type": "uint256"
        },
        {
          "indexed": false,
          "internalType": "uint256",
          "name": "_toTokenId",
          "type": "uint256"
        }
      ],
      "name": "BatchMetadataUpdate",
      "type": "event"
    },
    {
      "anonymous": false,
      "inputs": [
        {
          "indexed": false,
          "internalType": "uint256",
          "name": "_tokenId",
          "type": "uint256"
        }
      ],
      "name": "MetadataUpdate",
      "type": "event"
    },
    {
      "anonymous": false,
      "inputs": [
        {
          "indexed": false,
          "internalType": "uint256",
          "name": "tokenID",
          "type": "uint256"
        },
        {
          "indexed": false,
          "internalType": "address",
          "name": "from",
          "type": "address"
        },
        {
          "indexed": false,
          "internalType": "address",
          "name": "to",
          "type": "address"
        },
        {
          "indexed": false,
          "internalType": "string",
          "name": "tokenURI",
          "type": "string"
        },
        {
          "indexed": false,
          "internalType": "uint256",
          "name": "price",
          "type": "uint256"
        }
      ],
      "name": "NFTTransfer",
      "type": "event"
    },
    {
      "anonymous": false,
      "inputs": [
        {
          "indexed": true,
          "internalType": "address",
          "name": "previousOwner",
          "type": "address"
        },
        {
          "indexed": true,
          "internalType": "address",
          "name": "newOwner",
          "type": "address"
        }
      ],
      "name": "OwnershipTransferred",
      "type": "event"
    },
    {
      "anonymous": false,
      "inputs": [
        {
          "indexed": true,
          "internalType": "address",
          "name": "from",
          "type": "address"
        },
        {
          "indexed": true,
          "internalType": "address",
          "name": "to",
          "type": "address"
        },
        {
          "indexed": true,
          "internalType": "uint256",
          "name": "tokenId",
          "type": "uint256"
        }
      ],
      "name": "Transfer",
      "type": "event"
    },
    {
      "inputs": [
        {
          "internalType": "address",
          "name": "to",
          "type": "address"
        },
        {
          "internalType": "uint256",
          "name": "tokenId",
          "type": "uint256"
        }
      ],
      "name": "approve",
      "outputs": [],
      "stateMutability": "nonpayable",
      "type": "function"
    },
    {
      "inputs": [
        {
          "internalType": "address",
          "name": "owner",
          "type": "address"
        }
      ],
      "name": "balanceOf",
      "outputs": [
        {
          "internalType": "uint256",
          "name": "",
          "type": "uint256"
        }
      ],
      "stateMutability": "view",
      "type": "function"
    },
    {
      "inputs": [
        {
          "internalType": "uint256",
          "name": "tokenID",
          "type": "uint256"
        }
      ],
      "name": "buyNFT",
      "outputs": [],
      "stateMutability": "payable",
      "type": "function"
    },
    {
      "inputs": [
        {
          "internalType": "uint256",
          "name": "tokenID",
          "type": "uint256"
        }
      ],
      "name": "cancelListing",
      "outputs": [],
      "stateMutability": "nonpayable",
      "type": "function"
    },
    {
      "inputs": [
        {
          "internalType": "string",
          "name": "tokenURI",
          "type": "string"
        }
      ],
      "name": "createToken",
      "outputs": [],
      "stateMutability": "nonpayable",
      "type": "function"
    },
    {
      "inputs": [
        {
          "internalType": "uint256",
          "name": "tokenId",
          "type": "uint256"
        }
      ],
      "name": "getApproved",
      "outputs": [
        {
          "internalType": "address",
          "name": "",
          "type": "address"
        }
      ],
      "stateMutability": "view",
      "type": "function"
    },
    {
      "inputs": [
        {
          "internalType": "address",
          "name": "owner",
          "type": "address"
        },
        {
          "internalType": "address",
          "name": "operator",
          "type": "address"
        }
      ],
      "name": "isApprovedForAll",
      "outputs": [
        {
          "internalType": "bool",
          "name": "",
          "type": "bool"
        }
      ],
      "stateMutability": "view",
      "type": "function"
    },
    {
      "inputs": [
        {
          "internalType": "uint256",
          "name": "tokenID",
          "type": "uint256"
        },
        {
          "internalType": "uint256",
          "name": "price",
          "type": "uint256"
        }
      ],
      "name": "listNFT",
      "outputs": [],
      "stateMutability": "nonpayable",
      "type": "function"
    },
    {
      "inputs": [],
      "name": "name",
      "outputs": [
        {
          "internalType": "string",
          "name": "",
          "type": "string"
        }
      ],
      "stateMutability": "view",
      "type": "function"
    },
    {
      "inputs": [],
      "name": "owner",
      "outputs": [
        {
          "internalType": "address",
          "name": "",
          "type": "address"
        }
      ],
      "stateMutability": "view",
      "type": "function"
    },
    {
      "inputs": [
        {
          "internalType": "uint256",
          "name": "tokenId",
          "type": "uint256"
        }
      ],
      "name": "ownerOf",
      "outputs": [
        {
          "internalType": "address",
          "name": "",
          "type": "address"
        }
      ],
      "stateMutability": "view",
      "type": "function"
    },
    {
      "inputs": [],
      "name": "renounceOwnership",
      "outputs": [],
      "stateMutability": "nonpayable",
      "type": "function"
    },
    {
      "inputs": [
        {
          "internalType": "address",
          "name": "from",
          "type": "address"
        },
        {
          "internalType": "address",
          "name": "to",
          "type": "address"
        },
        {
          "internalType": "uint256",
          "name": "tokenId",
          "type": "uint256"
        }
      ],
      "name": "safeTransferFrom",
      "outputs": [],
      "stateMutability": "nonpayable",
      "type": "function"
    },
    {
      "inputs": [
        {
          "internalType": "address",
          "name": "from",
          "type": "address"
        },
        {
          "internalType": "address",
          "name": "to",
          "type": "address"
        },
        {
          "internalType": "uint256",
          "name": "tokenId",
          "type": "uint256"
        },
        {
          "internalType": "bytes",
          "name": "data",
          "type": "bytes"
        }
      ],
      "name": "safeTransferFrom",
      "outputs": [],
      "stateMutability": "nonpayable",
      "type": "function"
    },
    {
      "inputs": [
        {
          "internalType": "address",
          "name": "operator",
          "type": "address"
        },
        {
          "internalType": "bool",
          "name": "approved",
          "type": "bool"
        }
      ],
      "name": "setApprovalForAll",
      "outputs": [],
      "stateMutability": "nonpayable",
      "type": "function"
    },
    {
      "inputs": [
        {
          "internalType": "bytes4",
          "name": "interfaceId",
          "type": "bytes4"
        }
      ],
      "name": "supportsInterface",
      "outputs": [
        {
          "internalType": "bool",
          "name": "",
          "type": "bool"
        }
      ],
      "stateMutability": "view",
      "type": "function"
    },
    {
      "inputs": [],
      "name": "symbol",
      "outputs": [
        {
          "internalType": "string",
          "name": "",
          "type": "string"
        }
      ],
      "stateMutability": "view",
      "type": "function"
    },
    {
      "inputs": [
        {
          "internalType": "uint256",
          "name": "tokenId",
          "type": "uint256"
        }
      ],
      "name": "tokenURI",
      "outputs": [
        {
          "internalType": "string",
          "name": "",
          "type": "string"
        }
      ],
      "stateMutability": "view",
      "type": "function"
    },
    {
      "inputs": [
        {
          "internalType": "address",
          "name": "from",
          "type": "address"
        },
        {
          "internalType": "address",
          "name": "to",
          "type": "address"
        },
        {
          "internalType": "uint256",
          "name": "tokenId",
          "type": "uint256"
        }
      ],
      "name": "transferFrom",
      "outputs": [],
      "stateMutability": "nonpayable",
      "type": "function"
    },
    {
      "inputs": [
        {
          "internalType": "address",
          "name": "newOwner",
          "type": "address"
        }
      ],
      "name": "transferOwnership",
      "outputs": [],
      "stateMutability": "nonpayable",
      "type": "function"
    },
    {
      "inputs": [],
      "name": "withdrawFunds",
      "outputs": [],
      "stateMutability": "nonpayable",
      "type": "function"
    }
  ],
  "bytecode": "0x608060405260006008553480156200001657600080fd5b5060405162003a2d38038062003a2d83398181016040528101906200003c91906200028d565b806040518060400160405280600981526020017f4e465420546f6b656e00000000000000000000000000000000000000000000008152506040518060400160405280600381526020017f4e465400000000000000000000000000000000000000000000000000000000008152508160009081620000ba919062000539565b508060019081620000cc919062000539565b505050600073ffffffffffffffffffffffffffffffffffffffff168173ffffffffffffffffffffffffffffffffffffffff1603620001445760006040517f1e4fbdf70000000000000000000000000000000000000000000000000000000081526004016200013b919062000631565b60405180910390fd5b62000155816200015d60201b60201c565b50506200064e565b6000600760009054906101000a900473ffffffffffffffffffffffffffffffffffffffff16905081600760006101000a81548173ffffffffffffffffffffffffffffffffffffffff021916908373ffffffffffffffffffffffffffffffffffffffff1602179055508173ffffffffffffffffffffffffffffffffffffffff168173ffffffffffffffffffffffffffffffffffffffff167f8be0079c531659141344cd1fd0a4f28419497f9722a3daafe3b4186f6b6457e060405160405180910390a35050565b600080fd5b600073ffffffffffffffffffffffffffffffffffffffff82169050919050565b6000620002558262000228565b9050919050565b620002678162000248565b81146200027357600080fd5b50565b60008151905062000287816200025c565b92915050565b600060208284031215620002a657620002a562000223565b5b6000620002b68482850162000276565b91505092915050565b600081519050919050565b7f4e487b7100000000000000000000000000000000000000000000000000000000600052604160045260246000fd5b7f4e487b7100000000000000000000000000000000000000000000000000000000600052602260045260246000fd5b600060028204905060018216806200034157607f821691505b602082108103620003575762000356620002f9565b5b50919050565b60008190508160005260206000209050919050565b60006020601f8301049050919050565b600082821b905092915050565b600060088302620003c17fffffffffffffffffffffffffffffffffffffffffffffffffffffffffffffffff8262000382565b620003cd868362000382565b95508019841693508086168417925050509392505050565b6000819050919050565b6000819050919050565b60006200041a620004146200040e84620003e5565b620003ef565b620003e5565b9050919050565b6000819050919050565b6200043683620003f9565b6200044e620004458262000421565b8484546200038f565b825550505050565b600090565b6200046562000456565b620004728184846200042b565b505050565b5b818110156200049a576200048e6000826200045b565b60018101905062000478565b5050565b601f821115620004e957620004b3816200035d565b620004be8462000372565b81016020851015620004ce578190505b620004e6620004dd8562000372565b83018262000477565b50505b505050565b600082821c905092915050565b60006200050e60001984600802620004ee565b1980831691505092915050565b6000620005298383620004fb565b9150826002028217905092915050565b6200054482620002bf565b67ffffffffffffffff81111562000560576200055f620002ca565b5b6200056c825462000328565b620005798282856200049e565b600060209050601f831160018114620005b157600084156200059c578287015190505b620005a885826200051b565b86555062000618565b601f198416620005c1866200035d565b60005b82811015620005eb57848901518255600182019150602085019450602081019050620005c4565b868310156200060b578489015162000607601f891682620004fb565b8355505b6001600288020188555050505b505050505050565b6200062b8162000248565b82525050565b600060208201905062000648600083018462000620565b92915050565b6133cf806200065e6000396000f3fe60806040526004361061012a5760003560e01c80636352211e116100ab57806395d89b411161006f57806395d89b41146103b9578063a22cb465146103e4578063b88d4fde1461040d578063c87b56dd14610436578063e985e9c514610473578063f2fde38b146104b05761012a565b80636352211e146102d457806370a0823114610311578063715018a61461034e5780638da5cb5b1461036557806394383f14146103905761012a565b806324600fc3116100f257806324600fc314610226578063305a67a81461023d57806342842e0e1461026657806345576f941461028f57806351ed8288146102b85761012a565b806301ffc9a71461012f57806306fdde031461016c578063081812fc14610197578063095ea7b3146101d457806323b872dd146101fd575b600080fd5b34801561013b57600080fd5b50610156600480360381019061015191906123fe565b6104d9565b6040516101639190612446565b60405180910390f35b34801561017857600080fd5b5061018161053a565b60405161018e91906124f1565b60405180910390f35b3480156101a357600080fd5b506101be60048036038101906101b99190612549565b6105cc565b6040516101cb91906125b7565b60405180910390f35b3480156101e057600080fd5b506101fb60048036038101906101f691906125fe565b6105e8565b005b34801561020957600080fd5b50610224600480360381019061021f919061263e565b6105fe565b005b34801561023257600080fd5b5061023b610700565b005b34801561024957600080fd5b50610264600480360381019061025f9190612549565b6107a1565b005b34801561027257600080fd5b5061028d6004803603810190610288919061263e565b6109ff565b005b34801561029b57600080fd5b506102b660048036038101906102b191906126f6565b610a1f565b005b6102d260048036038101906102cd9190612549565b610ada565b005b3480156102e057600080fd5b506102fb60048036038101906102f69190612549565b610cf5565b60405161030891906125b7565b60405180910390f35b34801561031d57600080fd5b5061033860048036038101906103339190612743565b610d07565b604051610345919061277f565b60405180910390f35b34801561035a57600080fd5b50610363610dc1565b005b34801561037157600080fd5b5061037a610dd5565b60405161038791906125b7565b60405180910390f35b34801561039c57600080fd5b506103b760048036038101906103b2919061279a565b610dff565b005b3480156103c557600080fd5b506103ce610f2a565b6040516103db91906124f1565b60405180910390f35b3480156103f057600080fd5b5061040b60048036038101906104069190612806565b610fbc565b005b34801561041957600080fd5b50610434600480360381019061042f9190612976565b610fd2565b005b34801561044257600080fd5b5061045d60048036038101906104589190612549565b610fef565b60405161046a91906124f1565b60405180910390f35b34801561047f57600080fd5b5061049a600480360381019061049591906129f9565b611102565b6040516104a79190612446565b60405180910390f35b3480156104bc57600080fd5b506104d760048036038101906104d29190612743565b611196565b005b6000634906490660e01b7bffffffffffffffffffffffffffffffffffffffffffffffffffffffff1916827bffffffffffffffffffffffffffffffffffffffffffffffffffffffff1916148061053357506105328261121c565b5b9050919050565b60606000805461054990612a68565b80601f016020809104026020016040519081016040528092919081815260200182805461057590612a68565b80156105c25780601f10610597576101008083540402835291602001916105c2565b820191906000526020600020905b8154815290600101906020018083116105a557829003601f168201915b5050505050905090565b60006105d7826112fe565b506105e182611386565b9050919050565b6105fa82826105f56113c3565b6113cb565b5050565b600073ffffffffffffffffffffffffffffffffffffffff168273ffffffffffffffffffffffffffffffffffffffff16036106705760006040517f64a0ae9200000000000000000000000000000000000000000000000000000000815260040161066791906125b7565b60405180910390fd5b6000610684838361067f6113c3565b6113dd565b90508373ffffffffffffffffffffffffffffffffffffffff168173ffffffffffffffffffffffffffffffffffffffff16146106fa578382826040517f64283d7b0000000000000000000000000000000000000000000000000000000081526004016106f193929190612a99565b60405180910390fd5b50505050565b6107086115f7565b600047905060008111610750576040517f08c379a000000000000000000000000000000000000000000000000000000000815260040161074790612b1c565b60405180910390fd5b610758610dd5565b73ffffffffffffffffffffffffffffffffffffffff166108fc829081150290604051600060405180830381858888f1935050505015801561079d573d6000803e3d6000fd5b5050565b600060096000838152602001908152602001600020604051806040016040529081600082015481526020016001820160009054906101000a900473ffffffffffffffffffffffffffffffffffffffff1673ffffffffffffffffffffffffffffffffffffffff1673ffffffffffffffffffffffffffffffffffffffff16815250509050600081600001511161086a576040517f08c379a000000000000000000000000000000000000000000000000000000000815260040161086190612bae565b60405180910390fd5b3373ffffffffffffffffffffffffffffffffffffffff16816020015173ffffffffffffffffffffffffffffffffffffffff16146108dc576040517f08c379a00000000000000000000000000000000000000000000000000000000081526004016108d390612c40565b60405180910390fd5b3073ffffffffffffffffffffffffffffffffffffffff166323b872dd3033856040518463ffffffff1660e01b815260040161091993929190612c60565b600060405180830381600087803b15801561093357600080fd5b505af1158015610947573d6000803e3d6000fd5b505050506000600960008481526020019081526020016000206000018190555060006009600084815260200190815260200160002060010160006101000a81548173ffffffffffffffffffffffffffffffffffffffff021916908373ffffffffffffffffffffffffffffffffffffffff1602179055507f705332a8918666802fc1504f63ff1f002a5f6cedd30d59ad7ae0b5281aeb8dca82303360006040516109f39493929190612d02565b60405180910390a15050565b610a1a83838360405180602001604052806000815250610fd2565b505050565b600060086000815480929190610a3490612d89565b919050559050610a44338261167e565b610a928184848080601f016020809104026020016040519081016040528093929190818152602001838380828437600081840152601f19601f8201169050808301925050505050505061169c565b7f705332a8918666802fc1504f63ff1f002a5f6cedd30d59ad7ae0b5281aeb8dca8160003386866000604051610acd96959493929190612dfe565b60405180910390a1505050565b600060096000838152602001908152602001600020604051806040016040529081600082015481526020016001820160009054906101000a900473ffffffffffffffffffffffffffffffffffffffff1673ffffffffffffffffffffffffffffffffffffffff1673ffffffffffffffffffffffffffffffffffffffff168152505090506000816000015111610ba3576040517f08c379a0000000000000000000000000000000000000000000000000000000008152600401610b9a90612bae565b60405180910390fd5b80600001513414610be9576040517f08c379a0000000000000000000000000000000000000000000000000000000008152600401610be090612ea6565b60405180910390fd5b3073ffffffffffffffffffffffffffffffffffffffff166323b872dd3033856040518463ffffffff1660e01b8152600401610c2693929190612c60565b600060405180830381600087803b158015610c4057600080fd5b505af1158015610c54573d6000803e3d6000fd5b50505050806020015173ffffffffffffffffffffffffffffffffffffffff166108fc610c878360000151605f60646116f8565b9081150290604051600060405180830381858888f19350505050158015610cb2573d6000803e3d6000fd5b507f705332a8918666802fc1504f63ff1f002a5f6cedd30d59ad7ae0b5281aeb8dca8230336000604051610ce99493929190612d02565b60405180910390a15050565b6000610d00826112fe565b9050919050565b60008073ffffffffffffffffffffffffffffffffffffffff168273ffffffffffffffffffffffffffffffffffffffff1603610d7a5760006040517f89c62b64000000000000000000000000000000000000000000000000000000008152600401610d7191906125b7565b60405180910390fd5b600360008373ffffffffffffffffffffffffffffffffffffffff1673ffffffffffffffffffffffffffffffffffffffff168152602001908152602001600020549050919050565b610dc96115f7565b610dd360006117ff565b565b6000600760009054906101000a900473ffffffffffffffffffffffffffffffffffffffff16905090565b60008111610e42576040517f08c379a0000000000000000000000000000000000000000000000000000000008152600401610e3990612f12565b60405180910390fd5b610e4c30836105e8565b610e573330846105fe565b60405180604001604052808281526020013373ffffffffffffffffffffffffffffffffffffffff16815250600960008481526020019081526020016000206000820151816000015560208201518160010160006101000a81548173ffffffffffffffffffffffffffffffffffffffff021916908373ffffffffffffffffffffffffffffffffffffffff1602179055509050507f705332a8918666802fc1504f63ff1f002a5f6cedd30d59ad7ae0b5281aeb8dca82333084604051610f1e9493929190612f32565b60405180910390a15050565b606060018054610f3990612a68565b80601f0160208091040260200160405190810160405280929190818152602001828054610f6590612a68565b8015610fb25780601f10610f8757610100808354040283529160200191610fb2565b820191906000526020600020905b815481529060010190602001808311610f9557829003601f168201915b5050505050905090565b610fce610fc76113c3565b83836118c5565b5050565b610fdd8484846105fe565b610fe984848484611a34565b50505050565b6060610ffa826112fe565b50600060066000848152602001908152602001600020805461101b90612a68565b80601f016020809104026020016040519081016040528092919081815260200182805461104790612a68565b80156110945780601f1061106957610100808354040283529160200191611094565b820191906000526020600020905b81548152906001019060200180831161107757829003601f168201915b5050505050905060006110a5611beb565b905060008151036110ba5781925050506110fd565b6000825111156110ef5780826040516020016110d7929190612fc6565b604051602081830303815290604052925050506110fd565b6110f884611c02565b925050505b919050565b6000600560008473ffffffffffffffffffffffffffffffffffffffff1673ffffffffffffffffffffffffffffffffffffffff16815260200190815260200160002060008373ffffffffffffffffffffffffffffffffffffffff1673ffffffffffffffffffffffffffffffffffffffff16815260200190815260200160002060009054906101000a900460ff16905092915050565b61119e6115f7565b600073ffffffffffffffffffffffffffffffffffffffff168173ffffffffffffffffffffffffffffffffffffffff16036112105760006040517f1e4fbdf700000000000000000000000000000000000000000000000000000000815260040161120791906125b7565b60405180910390fd5b611219816117ff565b50565b60007f80ac58cd000000000000000000000000000000000000000000000000000000007bffffffffffffffffffffffffffffffffffffffffffffffffffffffff1916827bffffffffffffffffffffffffffffffffffffffffffffffffffffffff191614806112e757507f5b5e139f000000000000000000000000000000000000000000000000000000007bffffffffffffffffffffffffffffffffffffffffffffffffffffffff1916827bffffffffffffffffffffffffffffffffffffffffffffffffffffffff1916145b806112f757506112f682611c6b565b5b9050919050565b60008061130a83611cd5565b9050600073ffffffffffffffffffffffffffffffffffffffff168173ffffffffffffffffffffffffffffffffffffffff160361137d57826040517f7e273289000000000000000000000000000000000000000000000000000000008152600401611374919061277f565b60405180910390fd5b80915050919050565b60006004600083815260200190815260200160002060009054906101000a900473ffffffffffffffffffffffffffffffffffffffff169050919050565b600033905090565b6113d88383836001611d12565b505050565b6000806113e984611cd5565b9050600073ffffffffffffffffffffffffffffffffffffffff168373ffffffffffffffffffffffffffffffffffffffff161461142b5761142a818486611ed7565b5b600073ffffffffffffffffffffffffffffffffffffffff168173ffffffffffffffffffffffffffffffffffffffff16146114bc5761146d600085600080611d12565b6001600360008373ffffffffffffffffffffffffffffffffffffffff1673ffffffffffffffffffffffffffffffffffffffff168152602001908152602001600020600082825403925050819055505b600073ffffffffffffffffffffffffffffffffffffffff168573ffffffffffffffffffffffffffffffffffffffff161461153f576001600360008773ffffffffffffffffffffffffffffffffffffffff1673ffffffffffffffffffffffffffffffffffffffff168152602001908152602001600020600082825401925050819055505b846002600086815260200190815260200160002060006101000a81548173ffffffffffffffffffffffffffffffffffffffff021916908373ffffffffffffffffffffffffffffffffffffffff160217905550838573ffffffffffffffffffffffffffffffffffffffff168273ffffffffffffffffffffffffffffffffffffffff167fddf252ad1be2c89b69c2b068fc378daa952ba7f163c4a11628f55a4df523b3ef60405160405180910390a4809150509392505050565b6115ff6113c3565b73ffffffffffffffffffffffffffffffffffffffff1661161d610dd5565b73ffffffffffffffffffffffffffffffffffffffff161461167c576116406113c3565b6040517f118cdaa700000000000000000000000000000000000000000000000000000000815260040161167391906125b7565b60405180910390fd5b565b611698828260405180602001604052806000815250611f9b565b5050565b806006600084815260200190815260200160002090816116bc919061318c565b507ff8e1a15aba9398e019f0b49df1a4fde98ee17ae345cb5f6b5e2c27f5033e8ce7826040516116ec919061277f565b60405180910390a15050565b6000808385029050600080198587098281108382030391505060008103611733578382816117295761172861325e565b5b04925050506117f8565b80841161176c576040517f227bc15300000000000000000000000000000000000000000000000000000000815260040160405180910390fd5b600084868809905082811182039150808303925060008560000386169050808604955080840493506001818260000304019050808302841793506000600287600302189050808702600203810290508087026002038102905080870260020381029050808702600203810290508087026002038102905080870260020381029050808502955050505050505b9392505050565b6000600760009054906101000a900473ffffffffffffffffffffffffffffffffffffffff16905081600760006101000a81548173ffffffffffffffffffffffffffffffffffffffff021916908373ffffffffffffffffffffffffffffffffffffffff1602179055508173ffffffffffffffffffffffffffffffffffffffff168173ffffffffffffffffffffffffffffffffffffffff167f8be0079c531659141344cd1fd0a4f28419497f9722a3daafe3b4186f6b6457e060405160405180910390a35050565b600073ffffffffffffffffffffffffffffffffffffffff168273ffffffffffffffffffffffffffffffffffffffff160361193657816040517f5b08ba1800000000000000000000000000000000000000000000000000000000815260040161192d91906125b7565b60405180910390fd5b80600560008573ffffffffffffffffffffffffffffffffffffffff1673ffffffffffffffffffffffffffffffffffffffff16815260200190815260200160002060008473ffffffffffffffffffffffffffffffffffffffff1673ffffffffffffffffffffffffffffffffffffffff16815260200190815260200160002060006101000a81548160ff0219169083151502179055508173ffffffffffffffffffffffffffffffffffffffff168373ffffffffffffffffffffffffffffffffffffffff167f17307eab39ab6107e8899845ad3d59bd9653f200f220920489ca2b5937696c3183604051611a279190612446565b60405180910390a3505050565b60008373ffffffffffffffffffffffffffffffffffffffff163b1115611be5578273ffffffffffffffffffffffffffffffffffffffff1663150b7a02611a786113c3565b8685856040518563ffffffff1660e01b8152600401611a9a94939291906132e2565b6020604051808303816000875af1925050508015611ad657506040513d601f19601f82011682018060405250810190611ad39190613343565b60015b611b5a573d8060008114611b06576040519150601f19603f3d011682016040523d82523d6000602084013e611b0b565b606091505b506000815103611b5257836040517f64a0ae92000000000000000000000000000000000000000000000000000000008152600401611b4991906125b7565b60405180910390fd5b805181602001fd5b63150b7a0260e01b7bffffffffffffffffffffffffffffffffffffffffffffffffffffffff1916817bffffffffffffffffffffffffffffffffffffffffffffffffffffffff191614611be357836040517f64a0ae92000000000000000000000000000000000000000000000000000000008152600401611bda91906125b7565b60405180910390fd5b505b50505050565b606060405180602001604052806000815250905090565b6060611c0d826112fe565b506000611c18611beb565b90506000815111611c385760405180602001604052806000815250611c63565b80611c4284611fb7565b604051602001611c53929190612fc6565b6040516020818303038152906040525b915050919050565b60007f01ffc9a7000000000000000000000000000000000000000000000000000000007bffffffffffffffffffffffffffffffffffffffffffffffffffffffff1916827bffffffffffffffffffffffffffffffffffffffffffffffffffffffff1916149050919050565b60006002600083815260200190815260200160002060009054906101000a900473ffffffffffffffffffffffffffffffffffffffff169050919050565b8080611d4b5750600073ffffffffffffffffffffffffffffffffffffffff168273ffffffffffffffffffffffffffffffffffffffff1614155b15611e7f576000611d5b846112fe565b9050600073ffffffffffffffffffffffffffffffffffffffff168373ffffffffffffffffffffffffffffffffffffffff1614158015611dc657508273ffffffffffffffffffffffffffffffffffffffff168173ffffffffffffffffffffffffffffffffffffffff1614155b8015611dd95750611dd78184611102565b155b15611e1b57826040517fa9fbf51f000000000000000000000000000000000000000000000000000000008152600401611e1291906125b7565b60405180910390fd5b8115611e7d57838573ffffffffffffffffffffffffffffffffffffffff168273ffffffffffffffffffffffffffffffffffffffff167f8c5be1e5ebec7d5bd14f71427d1e84f3dd0314c0f7b2291e5b200ac8c7c3b92560405160405180910390a45b505b836004600085815260200190815260200160002060006101000a81548173ffffffffffffffffffffffffffffffffffffffff021916908373ffffffffffffffffffffffffffffffffffffffff16021790555050505050565b611ee2838383612085565b611f9657600073ffffffffffffffffffffffffffffffffffffffff168373ffffffffffffffffffffffffffffffffffffffff1603611f5757806040517f7e273289000000000000000000000000000000000000000000000000000000008152600401611f4e919061277f565b60405180910390fd5b81816040517f177e802f000000000000000000000000000000000000000000000000000000008152600401611f8d929190613370565b60405180910390fd5b505050565b611fa58383612146565b611fb26000848484611a34565b505050565b606060006001611fc68461223f565b01905060008167ffffffffffffffff811115611fe557611fe461284b565b5b6040519080825280601f01601f1916602001820160405280156120175781602001600182028036833780820191505090505b509050600082602001820190505b60011561207a578080600190039150507f3031323334353637383961626364656600000000000000000000000000000000600a86061a8153600a858161206e5761206d61325e565b5b04945060008503612025575b819350505050919050565b60008073ffffffffffffffffffffffffffffffffffffffff168373ffffffffffffffffffffffffffffffffffffffff161415801561213d57508273ffffffffffffffffffffffffffffffffffffffff168473ffffffffffffffffffffffffffffffffffffffff1614806120fe57506120fd8484611102565b5b8061213c57508273ffffffffffffffffffffffffffffffffffffffff1661212483611386565b73ffffffffffffffffffffffffffffffffffffffff16145b5b90509392505050565b600073ffffffffffffffffffffffffffffffffffffffff168273ffffffffffffffffffffffffffffffffffffffff16036121b85760006040517f64a0ae920000000000000000000000000000000000000000000000000000000081526004016121af91906125b7565b60405180910390fd5b60006121c6838360006113dd565b9050600073ffffffffffffffffffffffffffffffffffffffff168173ffffffffffffffffffffffffffffffffffffffff161461223a5760006040517f73c6ac6e00000000000000000000000000000000000000000000000000000000815260040161223191906125b7565b60405180910390fd5b505050565b600080600090507a184f03e93ff9f4daa797ed6e38ed64bf6a1f010000000000000000831061229d577a184f03e93ff9f4daa797ed6e38ed64bf6a1f01000000000000000083816122935761229261325e565b5b0492506040810190505b6d04ee2d6d415b85acef810000000083106122da576d04ee2d6d415b85acef810000000083816122d0576122cf61325e565b5b0492506020810190505b662386f26fc10000831061230957662386f26fc1000083816122ff576122fe61325e565b5b0492506010810190505b6305f5e1008310612332576305f5e10083816123285761232761325e565b5b0492506008810190505b612710831061235757612710838161234d5761234c61325e565b5b0492506004810190505b6064831061237a57606483816123705761236f61325e565b5b0492506002810190505b600a8310612389576001810190505b80915050919050565b6000604051905090565b600080fd5b600080fd5b60007fffffffff0000000000000000000000000000000000000000000000000000000082169050919050565b6123db816123a6565b81146123e657600080fd5b50565b6000813590506123f8816123d2565b92915050565b6000602082840312156124145761241361239c565b5b6000612422848285016123e9565b91505092915050565b60008115159050919050565b6124408161242b565b82525050565b600060208201905061245b6000830184612437565b92915050565b600081519050919050565b600082825260208201905092915050565b60005b8381101561249b578082015181840152602081019050612480565b60008484015250505050565b6000601f19601f8301169050919050565b60006124c382612461565b6124cd818561246c565b93506124dd81856020860161247d565b6124e6816124a7565b840191505092915050565b6000602082019050818103600083015261250b81846124b8565b905092915050565b6000819050919050565b61252681612513565b811461253157600080fd5b50565b6000813590506125438161251d565b92915050565b60006020828403121561255f5761255e61239c565b5b600061256d84828501612534565b91505092915050565b600073ffffffffffffffffffffffffffffffffffffffff82169050919050565b60006125a182612576565b9050919050565b6125b181612596565b82525050565b60006020820190506125cc60008301846125a8565b92915050565b6125db81612596565b81146125e657600080fd5b50565b6000813590506125f8816125d2565b92915050565b600080604083850312156126155761261461239c565b5b6000612623858286016125e9565b925050602061263485828601612534565b9150509250929050565b6000806000606084860312156126575761265661239c565b5b6000612665868287016125e9565b9350506020612676868287016125e9565b925050604061268786828701612534565b9150509250925092565b600080fd5b600080fd5b600080fd5b60008083601f8401126126b6576126b5612691565b5b8235905067ffffffffffffffff8111156126d3576126d2612696565b5b6020830191508360018202830111156126ef576126ee61269b565b5b9250929050565b6000806020838503121561270d5761270c61239c565b5b600083013567ffffffffffffffff81111561272b5761272a6123a1565b5b612737858286016126a0565b92509250509250929050565b6000602082840312156127595761275861239c565b5b6000612767848285016125e9565b91505092915050565b61277981612513565b82525050565b60006020820190506127946000830184612770565b92915050565b600080604083850312156127b1576127b061239c565b5b60006127bf85828601612534565b92505060206127d085828601612534565b9150509250929050565b6127e38161242b565b81146127ee57600080fd5b50565b600081359050612800816127da565b92915050565b6000806040838503121561281d5761281c61239c565b5b600061282b858286016125e9565b925050602061283c858286016127f1565b9150509250929050565b600080fd5b7f4e487b7100000000000000000000000000000000000000000000000000000000600052604160045260246000fd5b612883826124a7565b810181811067ffffffffffffffff821117156128a2576128a161284b565b5b80604052505050565b60006128b5612392565b90506128c1828261287a565b919050565b600067ffffffffffffffff8211156128e1576128e061284b565b5b6128ea826124a7565b9050602081019050919050565b82818337600083830152505050565b6000612919612914846128c6565b6128ab565b90508281526020810184848401111561293557612934612846565b5b6129408482856128f7565b509392505050565b600082601f83011261295d5761295c612691565b5b813561296d848260208601612906565b91505092915050565b600080600080608085870312156129905761298f61239c565b5b600061299e878288016125e9565b94505060206129af878288016125e9565b93505060406129c087828801612534565b925050606085013567ffffffffffffffff8111156129e1576129e06123a1565b5b6129ed87828801612948565b91505092959194509250565b60008060408385031215612a1057612a0f61239c565b5b6000612a1e858286016125e9565b9250506020612a2f858286016125e9565b9150509250929050565b7f4e487b7100000000000000000000000000000000000000000000000000000000600052602260045260246000fd5b60006002820490506001821680612a8057607f821691505b602082108103612a9357612a92612a39565b5b50919050565b6000606082019050612aae60008301866125a8565b612abb6020830185612770565b612ac860408301846125a8565b949350505050565b7f4d61726b6574506c616365203a20496e73756666696369656e742046756e6473600082015250565b6000612b0660208361246c565b9150612b1182612ad0565b602082019050919050565b60006020820190508181036000830152612b3581612af9565b9050919050565b7f4d61726b6574506c616365203a204e4654206e6f74206c697374656420666f7260008201527f2073616c65000000000000000000000000000000000000000000000000000000602082015250565b6000612b9860258361246c565b9150612ba382612b3c565b604082019050919050565b60006020820190508181036000830152612bc781612b8b565b9050919050565b7f4d61726b6574506c616365203a204c697374696e67206e6f742063726561746560008201527f6420627920796f75000000000000000000000000000000000000000000000000602082015250565b6000612c2a60288361246c565b9150612c3582612bce565b604082019050919050565b60006020820190508181036000830152612c5981612c1d565b9050919050565b6000606082019050612c7560008301866125a8565b612c8260208301856125a8565b612c8f6040830184612770565b949350505050565b50565b6000612ca760008361246c565b9150612cb282612c97565b600082019050919050565b6000819050919050565b6000819050919050565b6000612cec612ce7612ce284612cbd565b612cc7565b612513565b9050919050565b612cfc81612cd1565b82525050565b600060a082019050612d176000830187612770565b612d2460208301866125a8565b612d3160408301856125a8565b8181036060830152612d4281612c9a565b9050612d516080830184612cf3565b95945050505050565b7f4e487b7100000000000000000000000000000000000000000000000000000000600052601160045260246000fd5b6000612d9482612513565b91507fffffffffffffffffffffffffffffffffffffffffffffffffffffffffffffffff8203612dc657612dc5612d5a565b5b600182019050919050565b6000612ddd838561246c565b9350612dea8385846128f7565b612df3836124a7565b840190509392505050565b600060a082019050612e136000830189612770565b612e2060208301886125a8565b612e2d60408301876125a8565b8181036060830152612e40818587612dd1565b9050612e4f6080830184612cf3565b979650505050505050565b7f4d61726b6574506c616365203a20496e636f727265637420616d6f756e740000600082015250565b6000612e90601e8361246c565b9150612e9b82612e5a565b602082019050919050565b60006020820190508181036000830152612ebf81612e83565b9050919050565b7f5072696365206d7573742062652067726561746572207468616e203000000000600082015250565b6000612efc601c8361246c565b9150612f0782612ec6565b602082019050919050565b60006020820190508181036000830152612f2b81612eef565b9050919050565b600060a082019050612f476000830187612770565b612f5460208301866125a8565b612f6160408301856125a8565b8181036060830152612f7281612c9a565b9050612f816080830184612770565b95945050505050565b600081905092915050565b6000612fa082612461565b612faa8185612f8a565b9350612fba81856020860161247d565b80840191505092915050565b6000612fd28285612f95565b9150612fde8284612f95565b91508190509392505050565b60008190508160005260206000209050919050565b60006020601f8301049050919050565b600082821b905092915050565b60006008830261304c7fffffffffffffffffffffffffffffffffffffffffffffffffffffffffffffffff8261300f565b613056868361300f565b95508019841693508086168417925050509392505050565b600061308961308461307f84612513565b612cc7565b612513565b9050919050565b6000819050919050565b6130a38361306e565b6130b76130af82613090565b84845461301c565b825550505050565b600090565b6130cc6130bf565b6130d781848461309a565b505050565b5b818110156130fb576130f06000826130c4565b6001810190506130dd565b5050565b601f8211156131405761311181612fea565b61311a84612fff565b81016020851015613129578190505b61313d61313585612fff565b8301826130dc565b50505b505050565b600082821c905092915050565b600061316360001984600802613145565b1980831691505092915050565b600061317c8383613152565b9150826002028217905092915050565b61319582612461565b67ffffffffffffffff8111156131ae576131ad61284b565b5b6131b88254612a68565b6131c38282856130ff565b600060209050601f8311600181146131f657600084156131e4578287015190505b6131ee8582613170565b865550613256565b601f19841661320486612fea565b60005b8281101561322c57848901518255600182019150602085019450602081019050613207565b868310156132495784890151613245601f891682613152565b8355505b6001600288020188555050505b505050505050565b7f4e487b7100000000000000000000000000000000000000000000000000000000600052601260045260246000fd5b600081519050919050565b600082825260208201905092915050565b60006132b48261328d565b6132be8185613298565b93506132ce81856020860161247d565b6132d7816124a7565b840191505092915050565b60006080820190506132f760008301876125a8565b61330460208301866125a8565b6133116040830185612770565b818103606083015261332381846132a9565b905095945050505050565b60008151905061333d816123d2565b92915050565b6000602082840312156133595761335861239c565b5b60006133678482850161332e565b91505092915050565b600060408201905061338560008301856125a8565b6133926020830184612770565b939250505056fea2646970667358221220136edaaf79d6d7d1e5bce3523c1de279a5ae60f42c2c3cce422c99b883800d7f64736f6c63430008180033",
  "linkReferences": {},
  "deployedLinkReferences": {}
}